:020000040800F2
:10000000D80D00209D0100084D7200086D5F0008AA
:1000100049720008E50C00081D8700080000000078
:10002000000000000000000000000000397B000814
:10003000B71900080000000071770008417D000832
:10004000B7010008B7010008B7010008B7010008B0
:10005000B7010008B7010008B7010008B7010008A0
:10006000B7010008B7010008B7010008B701000890
:10007000B7010008B7010008B7010008B701000880
:100080008D180008B7010008B7010008B701000883
:10009000B7010008B7010008B7010008B701000860
:1000A000B7010008157E0008B7010008B701000875
:1000B000B7010008B7010008B7010008B701000840
:1000C000B7010008B7010008B7010008B701000830
:1000D000B7010008B70100087D860008B7010008D5
:1000E000B7010008B7010008B7010008B701000810
:1000F000B7010008B7010008B7010008B701000800
:10010000B7010008B7010008B7010008B7010008EF
:10011000B7010008B70100082D7E00083D7E0008E9
:100120009D180008B7010008B7010008B7010008D2
:10013000B7010008B7010008B7010008B7010008BF
:10014000B7010008B7010008B7010008B7010008AF
:10015000B7010008B7010008B7010008B70100089F
:10016000B7010008B7010008B7010008B70100088F
:10017000B7010008B7010008B7010008000000003F
:10018000B7010008B7010008DFF80CD000F086FBCB
:100190000048004789AC0008D80D00200648804779
:1001A00006480047FEE7FEE7FEE7FEE7FEE7FEE75C
:1001B000FEE7FEE7FEE7FEE7017E00088901000892
:1001C0002DE9F05F0546002092469B46884606468C
:1001D000814640241BE0284641464746224600F01F
:1001E00020FA53465A46C01A914110D31146184678
:1001F000224600F007FA2D1A67EB01084F46224607
:100200000120002100F0FEF917EB00094E41201EED
:10021000A4F10104DFDC484631462A464346BDE8E6
:10022000F09F40EA01039B0703D009E008C9121FB1
:1002300008C0042AFAD203E011F8013B00F8013BA0
:10024000521EF9D27047D2B201E000F8012B491ECC
:10025000FBD270470022F6E710B513460A46044663
:100260001946FFF7F0FF204610BD421C10F8011B95
:100270000029FBD1801A70472DE9FE4F804681EAA4
:100280000300C00F0C46009021F0004123F0004510
:10029000B8EB0200A94105D24046214690461C46D3
:1002A0000B46024623F00040104347D0270DC7F30A
:1002B0000A00C3F30A510290401A019040286BDAF9
:1002C000C3F3130040F4801B0098924620B1002332
:1002D000D2EB030A63EB0B0B01985946C0F14002C5
:1002E000504600F08FF906460D4650465946019A91
:1002F00000F0A7F910EB08006141002487EA1152D1
:1003000084EAE7731A4340D0009A62B3019A012A43
:100310004FEA075215DC001B61EB02014FF000426F
:1003200002EA0752CDE90042001C41F58011324635
:100330002B4600F0DEF903B0BDE8F08F40462146C1
:10034000F9E7001B61EB0201001C41F58013001866
:100350005B412018A2F5001747EB030140EAD57076
:10036000B6196D4111E06D084FEA360645EAC075D1
:100370004FEA0752001B61EB0201001C41F580119E
:1003800049084FEA30000019514132462B4603B06C
:10039000BDE8F04F00F09EB9009801224000002314
:1003A000D0EB020263EBE073009821464FEAE07461
:1003B000B8EB000061EB0401E9E783F000435BE781
:1003C00081F0004158E72DE9FE4F81EA030404F073
:1003D000004421F0004100944FF0000B23F0004353
:1003E00050EA01045ED052EA03045BD0C3F30A541E
:1003F000C1F30A552C44A4F2F3340194A0FB025437
:10040000C1F3130141F48011C3F3130343F48013C8
:1004100001FB024400FB034E840A970A44EA81541C
:1004200047EA8357A4FB076802958D0A05FB0785F9
:100430004FEA932C04FB0C542705029D4FEA065803
:1004400047EA1637B5EB08056EEB070C870E920EE0
:1004500047EA811742EA8312A7FB0201B6EB0B01C0
:1004600064EB00042B0D43EA0C335E1844EB1C5084
:10047000DA465146E7FB0201C5F313044FEA0B339A
:1004800043EA14534FEA0432019C43EA0603A4F101
:100490000C040294009CCDE900B400F02AF903B0EA
:1004A000BDE8F08F00200146F9E70EB5C10F80EAE4
:1004B000E0700844CA07002140F233438DE80E0083
:1004C0000A460B4600F015F903B000BD0EB540F228
:1004D000334102910021CDE900110A460B4600F09C
:1004E00008F903B000BDC1F30A5210B5C1F31301FE
:1004F00040F2FF3341F480119A4201DA002010BD2E
:1005000040F233439A42A2F2334203DC524200F0FB
:1005100088F810BD904010BD00F0004230F000405F
:100520000AD0C10D01F56071C0F3160042EA015115
:10053000C208400711437047002001467047000081
:1005400030B5041E71F1000404DB4FF0004440425A
:1005500064EB0101141E73F1000405DB1C464FF02F
:100560000043524263EB04038B4208BF824230BD1A
:1005700030B5041E71F1000404DB4FF0004440422A
:1005800064EB0101141E73F1000405DB1C464FF0FF
:100590000043524263EB0403994208BF904230BDCE
:1005A00001F0004330B421F0004150EA010206D0CE
:1005B0000A0DA2F56072C1F31301002A02DC30BCFF
:1005C00000207047440F44EAC104C100E01830BC69
:1005D00000EBC25000F047B830B50B460146002092
:1005E0002022012409E021FA02F59D4205D303FAF5
:1005F00002F5491B04FA02F52844151EA2F1010276
:10060000F1DC30BD202A04DB203A00FA02F10020A0
:1006100070479140C2F1200320FA03F31943904040
:100620007047202A04DB203A21FA02F000217047AB
:1006300021FA02F3D040C2F120029140084319464A
:100640007047202A06DBCB17203A41FA02F043EA32
:10065000E07306E041FA02F3D040C2F1200291407B
:100660000843194670470029A8BF7047401C49003D
:1006700008BF20F00100704710B4B0FA80FC00FA07
:100680000CF050EA010404BF10BC704749B1CCF132
:10069000200421FA04F411FA0CF118BF01212143BE
:1006A0000843A3EB0C01CB1D4FEA00614FEA102079
:1006B00042BF002010BC704700EBC350104400291B
:1006C000A4BF10BC7047401C490008BF20F00100C7
:1006D00010BC704710B5141E73F1000408DA401CFA
:1006E00041F1000192185B411A4301D120F0010051
:1006F00010BD2DE9F04D92469B4611B1B1FA81F241
:1007000002E0B0FA80F220329046FFF77BFF044609
:100710000F4640EA0A0041EA0B0153465A46084395
:1007200013D0114653EA010019D0C8F140025046D7
:10073000FFF777FF05460E46504659464246FFF7FB
:1007400061FF084305D0012004E020463946BDE89A
:10075000F08D0020054346EAE0762C4337430A98A3
:100760006305E40AA0EB08000022FD0A44EA4754AE
:100770000A3002D500200146E9E701051019694158
:10078000DDE9084500196941BDE8F04DA2E72DE912
:10079000F04D81EA030404F0004B21F000451446BB
:1007A0004FF0000A23F0004150EA050220D054EA3D
:1007B00001021DD0C5F30A570246C5F31303C1F366
:1007C0001300C1F30A5640F4801543F48013A7EBDD
:1007D0000608101BD64608F2FD3873EB050002D35D
:1007E00008F1010801E092185B41B8F1000F03DA4B
:1007F00000200146BDE8F08D00204FF48011064630
:1008000084460EE0171B73EB050705D3121B63EB41
:10081000050306434CEA010C49084FEA30009218E0
:100820005B4150EA0107EDD152EA030012D082EA9F
:10083000040083EA0501084305D0101BAB4106D232
:100840000122002306E000224FF0004302E06FF097
:10085000010253101AEB06004CEB085110EB0A0092
:1008600041EB0B01BDE8F04DFFF734BFC1F30A5275
:10087000C1F3130140F2FF3341F480119A4202DACE
:1008800000200146704740F233439A42A2F23342BD
:1008900002DC5242FFF7C5BEFFF7B4BE064C074D5F
:1008A00006E0E06840F0010394E807009847103440
:1008B000AC42F6D3FFF76CFCE4C9000804CA000898
:1008C00001460C2909DA064830F81100054A22F8D9
:1008D0001100104630F8110070470020FCE70000BE
:1008E000E80300200004002070B50546AC6B206CC6
:1008F00000F0500050BB206C40F400702064206871
:10090000806800F04050E8B9207ED8B92068C06AFD
:1009100000F4700020B12068806800F4806088B91D
:100920002068406820F0200021684860206C20F496
:1009300080702064206C00F4805018B9206C40F066
:1009400001002064204601F0B5FB0BE0206C00F0B4
:10095000100018B1204601F0AFFB03E0A06BC16CA2
:100960002846884770BD70B50546AC6B40202064B2
:10097000606C40F004006064204601F09DFB70BD97
:1009800070B50446A56B284601F095FB70BD0000CC
:1009900055494A6822F440324A604A6843681A431B
:1009A0004A600268526822F4807203685A600268E2
:1009B0005368026943EA022203685A600268526877
:1009C00022F0407203685A600268526883681A43D2
:1009D00003685A600268926822F4006203689A60B1
:1009E00002689268C3681A4303689A603F4B826A40
:1009F0009A4218D00268926822F0706203689A6086
:100A000002689268836A1A4303689A60026892686F
:100A100022F0405203689A6002689268C36A1A43DF
:100A200003689A600BE00268926822F070620368C3
:100A30009A600268926822F0405203689A600268E5
:100A4000926822F0020203689A6002689368027E4C
:100A500043EA420203689A602022125CA2B1026853
:100A6000526842F4006203685A600268526822F4D5
:100A7000604203685A6002685368426A521E43EA41
:100A8000423203685A6005E00268526822F400624C
:100A900003685A600268D26A22F470020368DA625C
:100AA0000268D36A828B521E43EA02520368DA62FA
:100AB0000268926822F4007203689A600268936880
:100AC00090F8302043EA422203689A6002689268F4
:100AD00022F4806203689A6002689368426943EA7C
:100AE000822203689A607047002301400100000FD2
:100AF00070B503460024501A451C084602E01E5CEF
:100B00003444401C9042FADD94FBF5F070BD0000C7
:100B10002DE9F74F88B00E461746F01900EBD0715B
:100B200049100791002006900590049000244FF092
:100B3000FF0803900290354623E00899485D069926
:100B400001440691711C8D4208D9791EA94205D92C
:100B5000A04200DD0446404500DA804607998D42F8
:100B600007D80599014405910399491CC9B203911D
:100B700006E00499014404910299491CC9B202910A
:100B80006D1CBD42D9D9B81B401C0699B1FBF0F0D1
:100B90001FFA80F903990598B0FBF1F080B201903B
:100BA00002990498B0FBF1F080B200904A48A0F896
:100BB000E29049490198A1F8E4000098A1F8E60004
:100BC0000846A0F8E840A0F8EA8000F1FC0A00F529
:100BD000847BB8F1F00F11DC0020404908704048D8
:100BE00000780AF800803E480078401C0A2190FBFB
:100BF000F1F201FB12003A49087004E0374800782E
:100C0000401C36490870092200215046FFF770FF4A
:100C100000EE900AF8EE600ACBED000A9BED000AA8
:100C20002D48D0ED430AB6EE001AF4EEC10AF1EEFB
:100C300010FA34D2F0EE080A60EE200AF1EE041A3F
:100C400080EEA11A00EE904AF8EE600A70EEC00A3B
:100C5000B4EEE01AF1EE10FA17D890ED431A00EE58
:100C6000904AF8EE600A61EE200A90ED431AF7EE22
:100C7000001A31EEC11A41EE000AFCEEE00A10EE55
:100C8000900A1549A1F8100121E004F11E00FF2887
:100C900000DC00E0FF201049A1F8100117E00E4829
:100CA00090ED431A00EE904AF8EE600A61EE200AD9
:100CB00090ED431AF7EE001A31EEC11A41EE000A28
:100CC000FCEEE00A10EE900A0349A1F81001484634
:100CD0000BB0BDE8F08F00001C01002005010020D2
:100CE0000401002000BFFEE72DE9F04F2DED0A8B37
:100CF00081B004460D469A46F948B0F810714FF09D
:100D00000008C346BFEE000AB0EE408ABFEE000AFC
:100D1000F0EE408ABFEE000AB0EE409A00EE105AA4
:100D2000B8EEC00AF0EE409ABAF1000F74D190ED1F
:100D3000490ABDEEC00A10EE109A4E4614F809009A
:100D4000B84272DB23E0032E12DBA05DB8420BDA5F
:100D5000701E205CA15D884208DC00EE106AB8EECF
:100D6000C00AB0EE408A14E0A05D8044761E0EE01A
:100D70002078B8420ADB6078B84207DBA05D804487
:100D80009FEDD80AB0EE408A002602E0761E002EC3
:100D9000D9DA00BF43E0A81EB0421ADDA05DB84218
:100DA00013DC701C205CA15D884210DC00EE106A30
:100DB000B8EEC00AF0EE408A38EE280AF0EE000ADB
:100DC00080EE201AB0EE419A2EE0A05D8044761CA1
:100DD00025E0A07FB84221DBE07FB8421EDBA05DAA
:100DE00080442846FFF761FB41EC1B0B9FEDBE0BD7
:100DF00053EC102BFFF7E1FA41EC1A0BFFF7D0FB95
:100E000008EE900A6E1E38EE280AF0EE000A80EE18
:100E1000201AB0EE419A07E0D7E006E0761CAE4219
:100E200002DABBF1000FB6D0CEE04CE0032E2ADB95
:100E3000A05DB84225DB701C205CA15D884220DCEF
:100E4000A05D804400EE106AB8EEC00AF0EE408A61
:100E500014E0A05DB8420EDA00EE106AB8EEC00AE7
:100E6000B0EE408A38EE280AF0EE000A80EE201A32
:100E7000B0EE419A04E0A05D8044761E002EE8DAD0
:100E800000BF761E1FE0BFEE000AF4EE408AF1EECE
:100E900010FA17D02078B84202DA6078B84211DB35
:100EA0002078617808448044B6EE000AB0EE408AAB
:100EB000002638EE280AF0EE000A80EE201AB0EE86
:100EC000419A02E0761E002EB0DA00BF4E465CE08A
:100ED000A81EB04228DDA05DB84223DD701C205C56
:100EE000A15D88421EDBA05D804400EE106AB8EE72
:100EF000C00AB0EE408A12E0A05DB8420EDA00EE01
:100F0000106AB8EEC00AF0EE408A38EE280AF0EE19
:100F1000000A80EE201AF0EE419A02E0761C002EC4
:100F2000EADA00BF761C30E0BFEE000AB4EE408A79
:100F3000F1EE10FA28D0681E205CB84203DAA81E31
:100F4000205CB84220DB681E215CA81E205C08449F
:100F500080442846FFF7A9FA41EC1B0B9FED620B7A
:100F600053EC102BFFF729FA41EC1A0BFFF718FB93
:100F700008EE900A6E1E38EE280AF0EE000A80EEA7
:100F8000201AF0EE419A02E0761CAE42A0DB00BFD0
:100F900000EE109AB8EEC00A30EE490AF6EE000AEA
:100FA00070EE600A00EE109AB8EEC00A39EEC00A80
:100FB000B6EE001A30EE010AF4EEC00AF1EE10FAB5
:100FC00000D801E0B0EE699A36E30AF1010000288A
:100FD00073D1434890ED490ABDEEC00A10EE109A55
:100FE0004E46012632E0A05DB8422EDBA15D701EA8
:100FF000205C814221DB00EE106AB8EEC00AB0EE40
:10100000408A12E0A05DB8420EDA00EE106AB8EE37
:10101000C00AF0EE408A38EE280AF0EE000A80EEB0
:10102000201AB0EE419A07E0761C09EB490000EB6C
:10103000D071B6EB610FE5DB00BFBFEE000AB4EE86
:10104000409AF1EE10FA00D002E0761C4E45CADB61
:1010500000BFBFEE000AB4EE409AF1EE10FA16D1CE
:101060002078B84213DB6078217888420FDC9FED4E
:101070001D0AB0EE408AB0EE000AF0EE408A38EE6B
:10108000280AF0EE000A80EE201AB0EE419ABFEE78
:10109000000AB4EE409AF1EE10FA7AD100EE105A3E
:1010A000B8EEC00AF4EE409AF1EE10FA79D114F8D5
:1010B0000900B84275DB4E4629E0DDE0032E19DB5E
:1010C000A05DB84214DA701E205CA15D88420FDC7E
:1010D00000EE106AB8EEC00AB0EE408A19E00000D7
:1010E0001C01002000000000000000000000F83F8C
:1010F000761E0CE02078B84208DB6078B84205DB49
:101100001FED080AB0EE408A002602E0761E002E8F
:10111000D4DA00BF4E463EE0A81EB04218DDA05D06
:10112000B84213DC701C205CA15D88420EDC00EE2E
:10113000106AB8EEC00AF0EE408A38EE280AF0EEE7
:10114000000A80EE201AB0EE419A29E0761C22E0D7
:10115000A07FB8421EDBE07FB8421BDB2846FFF7CA
:10116000A4F941EC1B0B1FED200B53EC102BFFF7E8
:1011700024F941EC1A0BFFF713FA08EE900A6E1EE1
:1011800038EE280AF0EE000A80EE201AB0EE419AFE
:1011900006E006E0761CAE4202DABBF1000FBBD0DF
:1011A00000BFBFEE000AB4EE409AF1EE10FA62D131
:1011B00000EE105AB8EEC00AF4EE409AF1EE10FAC2
:1011C00059D14E4654E0A81EB04226DDA05DB8427B
:1011D00021DD701C205CA15D88421CDB00EE106AE2
:1011E000B8EEC00AB0EE408A12E0A05DB8420EDA56
:1011F00000EE106AB8EEC00AF0EE408A38EE280A17
:10120000F0EE000A80EE201AF0EE419A02E0761C21
:10121000002EEADA00BF761C2AE0BFEE000AB4EE28
:10122000408AF1EE10FA22D0681E205CB84203DA40
:10123000A81E205CB8421ADB2846FFF736F941ECBD
:101240001B0B1FED570B53EC102BFFF7B6F841ECBF
:101250001A0BFFF7A5F908EE900A6E1E38EE280A61
:10126000F0EE000A80EE201AF0EE419A02E0761CC1
:10127000AE42A8DB00BFDFE1BAF1020F7ED1FE482B
:1012800090ED490ABDEEC00A10EE109A4E466E1E51
:1012900030E0A05DB8422CDB701E205CA15D88426E
:1012A0001FDB00EE106AB8EEC00AF0EE408A12E0D2
:1012B000A05DB8420EDA00EE106AB8EEC00AB0EED9
:1012C000408A38EE280AF0EE000A80EE201AB0EECE
:1012D000419A05E0761E09EBD971B6EB610FE7DCA8
:1012E00000BFBFEE000AB4EE409AF1EE10FA00D053
:1012F00002E0761E4E45CCDC00BFBFEE000AB4EE25
:10130000409AF1EE10FA25D1681E205CB84221DB2C
:10131000A81E215C681E205C814205DDE81E215C60
:10132000A81E205C814215DC681E00EE100AB8EE93
:10133000C00AB0EE408AE81E00EE100AB8EEC00AFD
:10134000F0EE408A38EE280AF0EE000A80EE201A0D
:10135000B0EE419ABFEE000AB4EE409AF1EE10FAF8
:101360007AD100EE105AB8EEC00AF4EE409AF1EECF
:1013700010FA71D114F80900B84200E0A7E06BDB65
:101380004E461FE0032E10DBA05DB8420BDA701E44
:10139000205CA15D884206DC00EE106AB8EEC00A4F
:1013A000B0EE408A10E0761E0CE02078B84208DBF0
:1013B0006078B84205DB1FEDB50AB0EE408A002622
:1013C00002E0761E002EDDDA00BF4E463EE0A81E8B
:1013D000B04218DDA05DB84213DC701C205CA15D3A
:1013E00088420EDC00EE106AB8EEC00AF0EE408AC9
:1013F00038EE280AF0EE000A80EE201AB0EE419A8C
:1014000029E0761C22E02078B8421EDB6078B842E2
:101410001BDB2846FFF749F841EC1B0B1FEDCE0BF9
:1014200053EC102BFEF7C9FF41EC1A0BFFF7B8F88D
:1014300008EE900A6E1E38EE280AF0EE000A80EEE2
:10144000201AB0EE419A06E006E0761CAE4202DABF
:10145000BBF1000FBBD000BFBFEE000AB4EE409A54
:10146000F1EE10FA32D100EE105AB8EEC00AF4EEE6
:10147000409AF1EE10FA29D14E4625E0A05DB8421F
:1014800021DB701E205CA15D88421CDB00EE106A2F
:10149000B8EEC00AF0EE408A12E0A05DB8420EDA63
:1014A00000EE106AB8EEC00AB0EE408A38EE280AA4
:1014B000F0EE000A80EE201AB0EE419A02E0761EAD
:1014C000012EEADA00BF761E012ED7DAB4E0BAF1B7
:1014D000040F7DD11FEDFD0AF0EE40AAB2EE0F0A17
:1014E000B0EE40AAB3EE0F0AB0EE40BA00264FF0BD
:1014F000010901200090831E142220212046FFF7BD
:10150000F3FBF0EE40AA0023142220212046FFF72F
:10151000EBFBB0EE40AA0123142220212046FFF766
:10152000E3FBB0EE40BA5448C0ED45AA80ED46AAB0
:1015300080ED47BABFEE000AF4EE40AAF1EE10FAD1
:1015400005D19FED4E0AF0EE40AAB146761CBFEEE3
:10155000000AB4EE40AAF1EE10FA04D1B2EE0F0A7E
:10156000B0EE40AA761CBFEE000AB4EE40BAF1EE2F
:1015700010FA06D1B3EE0F0AB0EE40BA0020009088
:10158000761CB0EE041AF0EE4A0AB0EE6A0A07F0D2
:101590009FFD20B1B2EE0F0AB0EE40AA0CE0B0EE13
:1015A000041AF0EE4A0AB0EE6A0A07F091FD18B18B
:1015B000B2EE0F0AB0EE40AAB9F1000F16D00098B3
:1015C000A0B1B2EE0F0AB0EE40AA01202A4900E015
:1015D00032E081F828013AEE8A0A30EE0B0AF0EE8A
:1015E000080A80EE201AB0EE419A0AE0B9F1000F25
:1015F00001D0009828B900211F4880F82811B0EECA
:101600004A9AB2EE0F0AB0EE408AB2EE0F0AF0EE3E
:10161000408A032E0BD1BFEE000AB0EE409ABFEE17
:10162000000AB0EE408ABFEE000AF0EE408A0120C8
:10163000114981F8290100BF38EEC80AF1EE000A0D
:10164000B4EEE00AF1EE10FA2BDDB7EE000AB4EECC
:10165000C08AF1EE10FA20D92846FEF726FF41ECA9
:101660001C0B9FED070B53EC102BFEF7A6FE41EC75
:101670001A0B18EE900A07E01C0100200000000081
:101680000000000000000040FEF746FF41EC1B0B8D
:1016900053EC1A2BFEF76CFF03D8BFEE000AB0EE36
:1016A000409ABFEE000AB4EE408AF1EE10FA0DD077
:1016B000BFEE000AF4EE408AF1EE10FA06D0BFEE5B
:1016C000000AB4EE409AF1EE10FA1FD14FF0010B70
:1016D0001F4890F8810106280ED11E480068401C62
:1016E0001C49086008460068032805DB00200860E4
:1016F0000120174981F82A01002017490860BFEE30
:10170000000A01B0BDEC0A8BBDE8F08F0020114942
:1017100008600F4890F8810107280AD10E48006838
:10172000401C0D49086008460068032801DB0020C2
:1017300008600748B0F8E2006843A0EB0800B0FB7F
:10174000F5F0034981F82B01B0EE490AD9E7000012
:101750001C010020080100200C010020F0B5F0243D
:10176000F02520B94FF4FA761A4FBE6304E0012841
:1017700002D1C826174FBE6321B94FF40C76154F1E
:101780007E6304E0012902D1C826124F7E6300EE79
:10179000102AF8EEC00A9FED100A9FED101A01EE14
:1017A000200ABCEEC00A10EE106AB4B200EE103A85
:1017B000F8EEC00A9FED080A9FED081A01EE200A14
:1017C000BCEEC00A10EE106AB5B2054E3460361D8C
:1017D0003560F0BD004001400000704385EBB14032
:1017E00034180040F021F0204FF4AF72044B9A639C
:1017F00000BF4FF49B60034A1160121D10607047D8
:1018000000400140341800404FF4FA7002498863E8
:1018100040F28A204863704700400140C8200249D6
:101820008863AA20486370470040014000B5B42394
:10183000002211461046FFF791FF00BD00B5B4230A
:10184000002201210846FFF789FF00BD10B50023E3
:101850001A4601210846FFF781FF00231A46194660
:10186000184609F045FB4FF4FA7001F06DF90023BA
:10187000B42201210846FFF771FF10BD00B5002317
:10188000B42201210846FFF769FF00BD10B50248E8
:1018900000F07AFF10BD0000F808002010B50248E3
:1018A00000F072FF10BD0000A80400200146087877
:1018B00010381823B0FBF3F20848805CC865032A8F
:1018C00005D908686FF30900001D886503E0086802
:1018D0006FF309008865886D70470000C4C900086F
:1018E000014600208A6A8B69CBB932B1012A0DD03A
:1018F000022A03D0032A10D10EE000BFCB6A03F006
:101900008073B3F1807F00D1012007E0CB6AB3F18F
:10191000C07F00D1012001E000E000BF34E08B690E
:10192000B3F5005F1AD132B1012A07D0022A03D0E1
:10193000032A11D10AE000BF01200EE0CB6A03F0B8
:101940008073B3F1807F00D1012006E0CB6AB3F150
:10195000C07F00D1012000E000BF15E032B1012AB4
:1019600005D0022A04D0032A0CD103E000BF00BF37
:10197000012008E0CB6A03F08073B3F1807F00D1CF
:10198000012000E000BF00BF704730B50468246844
:1019900024F4802405682C60046863608468402C0B
:1019A00004D10468A2600468E16003E00468A160F7
:1019B0000468E26030BD704710B5044664204443BB
:1019C00000BF0A2000F005F8201EA4F10104F8D1A0
:1019D00010BDA8224243910800BF00BF0A1EA1F11A
:1019E0000101FAD1704700007C480068006900F0EE
:1019F000010020B16FF0010078490968086177485B
:101A000001F0ECFF05207649086076A006F0A0FE04
:101A1000E2E0002004F0B2FD042810D17048006814
:101A2000052806D16FA006F093FE05206C490860DA
:101A300005E071A006F08CFE042069490860684842
:101A4000006805F0D5FE71480068401C6F490860C9
:101A500008460068322817DD002008606CA006F0F8
:101A600077FE6FA006F074FE022001F06DF87F246F
:101A700005E07048015D70A006F06AFE641E002C4F
:101A8000F7DA6EA006F064FE04216A4800F036FA28
:101A90001F2200216748FFF73BF807F049FB69491F
:101AA000D1F87C0101F050F8674803F057FE664812
:101AB000017866A006F04CFE6848018868A006F030
:101AC00047FE664841886AA006F042FE6348818866
:101AD0006BA006F03DFE6148C1886DA006F038FE9F
:101AE0005E4801896EA006F033FE5C48418970A013
:101AF00006F02EFE5948818971A006F029FE57484C
:101B0000C18973A006F024FE5448018A74A006F02F
:101B10001FFE5248418A76A006F01AFE4F48818A7D
:101B200077A006F015FE4D48C18A79A006F010FE98
:101B300005F020FE434890ED340ABDEEC00A10EED9
:101B4000101A77A006F004FE012000F09DF904466B
:101B5000214677A006F0FCFD022000F095F904462E
:101B6000214677A006F0F4FD052000F08DF904462B
:101B7000214677A006F0ECFD062000F085F904462A
:101B8000214677A006F0E4FD072000F07DF9044629
:101B9000214677A006F0DCFD082000F075F9044628
:101BA000214677A006F0D4FD0B2000F06DF9044625
:101BB000214677A006F0CCFD0C2000F065F9044624
:101BC000214677A006F0C4FD092000F05DF9044627
:101BD000214677A006F0BCFD1BE70000B8060020F8
:101BE000100000207431332E7478743D2246726FD9
:101BF0007722FFFFFF0000007431332E7478743DAC
:101C0000224261636B22FFFFFF0000000C000020F6
:101C1000636C652073302E69642C30FFFFFF000079
:101C2000616464742073302E69642C302C31323836
:101C3000FFFFFF00580900202563000001FFFFFFA0
:101C4000000000001C0100200800002048302E7613
:101C5000616C3D2564FFFFFF00000000E8030020E9
:101C60006E302E76616C3D2564FFFFFF00000000A2
:101C70006E312E76616C3D2564FFFFFF0000000091
:101C80006E322E76616C3D2564FFFFFF0000000080
:101C90006E332E76616C3D2564FFFFFF000000006F
:101CA0006E342E76616C3D2564FFFFFF000000005E
:101CB0006E352E76616C3D2564FFFFFF000000004D
:101CC0006E362E76616C3D2564FFFFFF000000003C
:101CD0006E372E76616C3D2564FFFFFF000000002B
:101CE0006E382E76616C3D2564FFFFFF000000001A
:101CF0006E392E76616C3D2564FFFFFF0000000009
:101D00006E31302E76616C3D2564FFFFFF000000D0
:101D10006E31312E76616C3D2564FFFFFF000000BF
:101D2000544C302E76616C3D2564FFFFFF000000AF
:101D300047312E76616C3D2564FFFFFF00000000F7
:101D400047322E76616C3D2564FFFFFF00000000E6
:101D500047352E76616C3D2564FFFFFF00000000D3
:101D600047362E76616C3D2564FFFFFF00000000C2
:101D700047372E76616C3D2564FFFFFF00000000B1
:101D800047382E76616C3D2564FFFFFF00000000A0
:101D90004A312E76616C3D2564FFFFFF0000000094
:101DA0004A322E76616C3D2564FFFFFF0000000083
:101DB00051312E76616C3D2564FFFFFF000000006D
:101DC00000B5B423002201210846FFF7C7FC00BD7F
:101DD00072B600BFFEE7000070B51FA006F0B8FCA9
:101DE0000026012400252EE0002004F0C7FB032874
:101DF00006D004280DD0052807D0062818D10DE0FC
:101E0000641C112C00D1012412E0641E04B91024BA
:101E10000EE0012614A006F09BFC09E00524012633
:101E2000214615A006F094FC0FA006F091FC00BF1F
:101E300000BF6D1C42F21070854204D1002521467E
:101E40000DA006F085FC002ECED04FF4FA7000F005
:101E50007BFE204670BD000074302E7478743D22E5
:101E60006E6F22FFFFFF000074302E7478743D22E5
:101E70006F6B22FFFFFF000043302E76616C3D2523
:101E800064FFFFFF0000000001460D2928D2DFE8B3
:101E900001F027070A27270E1115181C27202300F9
:101EA000124A10681FE0114A121D10681BE0104A08
:101EB000106818E00E4A121D106814E00D4A1068F0
:101EC00011E00C4A121D10680DE0094A2432106816
:101ED00009E0094A106806E0074A121D106802E08E
:101EE0004FF0FF3000BF00BF7047000018024042B3
:101EF000100241420082404208024242F0B50646CA
:101F00000D46802090FBF5F7002409E0601C684333
:101F1000421E04FB05F13046FEF7EAFD3055641C15
:101F2000BC42F3D33846F0BD38B5024600200090DD
:101F300000BF92F83C00012801D1022038BD0120E9
:101F400082F83C0000BF0868092816D91068C068EC
:101F50000C780A3C04EB44050724AC40A043146809
:101F6000E0600C780A3C04EB44048868A0401468E4
:101F7000E46820431468E06013E0106800690C789E
:101F800004EB44050724AC40A043146820610C789E
:101F900004EB44048868A040146824692043146852
:101FA00020614868072817D21068406B0C79641EBE
:101FB00004EB84051F24AC40A043146860630888C8
:101FC00080B20C79641E04EB8404A0401468646B36
:101FD00020431468606331E048680D2817D2106808
:101FE000006B0C79E41F04EB84051F24AC40A04374
:101FF00014682063088880B20C79E41F04EB840421
:10200000A0401468246B20431468206316E0106815
:10201000C06A0C790D3C04EB84051F24AC40A0433E
:102020001468E062088880B20C790D3C04EB8404EB
:10203000A0401468E46A20431468E062194B1A4C0B
:102040001068A04206D10868122803D1586840F4ED
:1020500080005860144C1068A0421CD108681028F9
:1020600002D00868112816D1586840F40000586062
:10207000086810280FD10D4800680D4CB0FBF4F033
:1020800000EB80004000009002E00098401E0090AD
:1020900000980028F9D100BF002082F83C0000BF62
:1020A00000BF4BE700230140002001402C0000202E
:1020B00040420F0070477047704701460868C06C87
:1020C0007047000070B5044600250CB9012070BDB2
:1020D0001549A06A884200D000BF206C30B9204664
:1020E00000F024F80020606484F83C00206C00F0CC
:1020F000100088B9206C20F4885040F00200206461
:102100002046FEF745FC00206064206C20F00200B1
:1021100040F00100206400E0012500BF002084F8A9
:102120003C0000BF2846D2E70100000F10B586B082
:102130000446142101A8FEF78DF84E492068884214
:102140002CD100BF002000904B48006840F4007084
:10215000494908600846006800F40070009000BF1C
:1021600000BF00BF0020009043481438006840F0D2
:1021700001004149143908600846006800F0010078
:10218000009000BF00BF302001900320029000208B
:10219000039001A9394800F0EBFC68E03849206859
:1021A000884264D100BF002000903348006840F4AA
:1021B0008060314908600846006800F48060009043
:1021C00000BF00BF00BF002000902B4814380068FB
:1021D00040F020002849143908600846006800F0E3
:1021E0002000009000BF00BF00BF00200090084604
:1021F000006840F0040008600846006800F0040031
:10220000009000BF00BF4FF4FF60019003200290D8
:102210000020039001A91B4800F0AAFC0F200190A8
:10222000032002900020039001A9174800F0A0FCB1
:1022300016481749086080054860002114488160ED
:10224000C1604FF480610161490041618900816191
:102250004911C16100210162416200F0B5FB08B182
:10226000FFF7B6FD00BF0A48A063846300BF06B055
:1022700010BD00000021014044380240000002402F
:102280000022014000140240000802401064024095
:10229000A804002070B504460D460026206880681A
:1022A00000F48060B0F5806F11D12068806800F480
:1022B0008070B0F5807F0AD1206C40F0200020644F
:1022C00000BF002084F83C0000BF012070BD00F07A
:1022D00057FD064618E0681CB0B125B100F050FD6E
:1022E000801BA84210D92068006800F00200022874
:1022F0000AD0206C40F00400206400BF002084F865
:102300003C0000BF0320E1E72068006800F0020005
:102310000228E0D16FF0120021680860206C40F4C0
:10232000007020642068806800F04050B8B9207EBA
:10233000A8B92068C06A00F4700020B120688068E5
:1023400000F4806058B9206C20F480702064206C08
:1023500000F4805018B9206C40F001002064002087
:10236000B4E7000008B501460020009000BF91F8D6
:102370003C00012801D1022008BD012081F83C0069
:1023800000BF0868806800F00100A0B90868806894
:1023900040F001000B6898603F4800683F4BB0FB7D
:1023A000F3F000EB4000009002E00098401E009027
:1023B00000980028F9D10868806800F00100002822
:1023C00060D0086C40F20163984340F48070086468
:1023D0000868406800F4806028B1086C20F4005060
:1023E00040F480500864086C00F48050B0F5805FC1
:1023F00004D1486C20F00600486401E000204864E5
:1024000000BF002081F83C0000BF254A6FF0220089
:102410000B681860506800F01F0018BB214B08685B
:10242000984213D0204B0868984204D1101D0068D0
:1024300000F01F0050B11D4B086898422AD118487F
:10244000001D006800F01F00102823D20868806873
:1024500000F04050F0B90868806840F080400B6898
:10246000986017E00F4B0868984213D1086880689D
:1024700000F0405070B90868806840F080400B68F8
:10248000986007E0086C40F010000864486C40F069
:102490000100486400206FE72C00002040420F003C
:1024A00000230140002001400021014000220140A2
:1024B000F8B504460D4616460020009000BF94F87B
:1024C0003C00012801D10220F8BD012084F83C0025
:1024D00000BF2068806800F00100A0B92068806813
:1024E00040F0010021688860554800685549B0FBFC
:1024F000F1F000EB4000009002E00098401E0090D8
:1025000000980028F9D12068806800F48070B0F548
:10251000807F05D12068806820F480702168886001
:102520002068806800F0010000287ED0206C40F216
:102530000161884340F4807020642068406800F4A2
:10254000806028B1206C20F4005040F4805020645A
:10255000206C00F48050B0F5805F04D1606C20F0F6
:102560000600606401E00020606400BF002084F881
:102570003C0000BF344F3548A16BC8633448A16BA1
:1025800008643448A16BC8646FF0220021680860B9
:102590002068406840F0806021684860206880685A
:1025A00040F4807021688860226802F14C01334653
:1025B0002A46A06B00F07EFA786800F01F0018BB76
:1025C00025492068884213D024492068884204D1D4
:1025D000381D006800F01F0050B121492068884272
:1025E0002BD11948001D006800F01F00102824D2CC
:1025F0002068806800F04050F8B92068806840F09A
:1026000080402168886018E013492068884214D10E
:102610002068806800F0405078B92068806840F0F9
:1026200080402168886008E0FFE7206C40F01000DF
:102630002064606C40F001006064002044E700000A
:102640002C00002040420F0000230140E908000850
:1026500081090008670900080020014000210140AD
:1026600000220140014600BF91F83C00012801D141
:1026700002207047012081F83C0000BF0868806894
:1026800020F001000A6890600868806800F001008E
:1026900028B9086C20F4885040F00100086400BF9D
:1026A000002081F83C0000BF00BFE2E770B504469F
:1026B000A56D00F065FB064694F83500022808D0A9
:1026C0008020606500BF002084F8340000BF012036
:1026D00070BD2068006820F016002168086020683E
:1026E000406920F0800021684861206C08B9A06C26
:1026F00028B12068006820F0080021680860206880
:10270000006820F001002168086010E000F038FB4C
:10271000801B05280BD920206065032084F8350034
:1027200000BF002084F8340000BF0320D0E72068F9
:10273000006800F001000028E8D194F85C103F2008
:102740008840A860012084F8350000BF002084F88C
:10275000340000BF00BFBBE7014691F835000228F6
:1027600003D08020486501207047052081F835009E
:102770000868006820F001000A6810600020F3E794
:102780000146486D70470000F8B5044600200090EF
:102790008C4800684FF41651B0FBF1F7A56D2E6818
:1027A00094F85C1008208840304098B12068006898
:1027B00000F0040070B12068006820F00400216877
:1027C000086094F85C1008208840A860606D40F0B4
:1027D0000100606594F85C1001208840304068B1C9
:1027E0002068406900F0800040B194F85C1001203E
:1027F0008840A860606D40F00200606594F85C104D
:1028000004208840304068B12068006800F0020071
:1028100040B194F85C1004208840A860606D40F0DE
:102820000400606594F85C1010208840304078B354
:102830002068006800F0080050B394F85C10102085
:102840008840A8602068006800F4802080B120687B
:10285000006800F4002028B9206CC8B12046216C23
:10286000884715E0A06C98B12046A16C88470FE01E
:102870002068006800F4807028B92068006820F0A3
:10288000080021680860206C10B12046216C884740
:1028900094F85C10202088403040002865D02068E3
:1028A000006800F0100000285FD094F85C10202031
:1028B0008840A86094F83500052828D12068006871
:1028C00020F01600216808602068406920F0800030
:1028D00021684861206C08B9A06C28B120680068A4
:1028E00020F008002168086094F85C103F208840C0
:1028F000A860012084F8350000BF002084F834006F
:1029000000BF206D10B12046216D8847F8BD2068BA
:10291000006800F4802080B12068006800F4002086
:1029200028B9606C10B12046616C88471DE0E06BEF
:10293000D8B12046E16B884717E02068006800F4B2
:10294000807068B92068006820F010002168086075
:10295000012084F8350000BF002084F8340000BF57
:10296000E06B10B12046E16B8847606D38B3606D55
:1029700000F00100F0B1052084F8350020680068FF
:1029800020F001002168086000BF0098401C009002
:10299000B84200D905E02068006800F00100002876
:1029A000F3D100BF012084F8350000BF002084F877
:1029B000340000BFE06C10B12046E16C884700BFD6
:1029C000A4E700002C0000202DE9F041044600257A
:1029D00000F0D6F9074614B90120BDE8F081606A1D
:1029E00000B100BF022084F8350000BF002084F849
:1029F000340000BF2068006820F0010021680860F2
:102A00000AE000F0BDF9C01B052805D9202060654B
:102A1000032084F83500E0E72068006800F001003A
:102A20000028EED12068056821480540D4E901015D
:102A30000843E16808432169084361690843A169C3
:102A40000843E1690843216A08430543606A042892
:102A500003D1D4E90B0108430543206805602068D1
:102A6000456925F00705606A0543606A04280DD1B1
:102A7000A06A0543E06A48B12046FEF731FF28B15D
:102A800040206065012084F83500A6E72068456194
:102A90002046FEF70BFF064694F85C103F20884066
:102AA000B06000206065012084F83500002094E7C4
:102AB0003F8010F02DE9F04704460D4616461F46AC
:102AC0004FF00008D4F8589000BF94F83400012863
:102AD00002D10220BDE8F087012084F8340000BF55
:102AE00094F83500012825D1022084F83500002013
:102AF00060653B46324629462046FEF746FF94F87D
:102B00005C103F208840C9F808002068006840F049
:102B1000160021680860206C28B12068006840F029
:102B20000800216808602068006840F00100216802
:102B3000086006E000BF002084F8340000BF4FF0BA
:102B400002084046C6E7000070B5044600F018F9D8
:102B500006462546681C10B104480078054400BFAD
:102B600000F00EF9801BA842FAD370BD28000020A7
:102B7000F8B502460B460025002400200021D6E0CF
:102B8000012606FA01F51E6806EA0504AC4274D176
:102B90001E7906F00306012E04D01E7906F0030606
:102BA000022E13D190684F000326BE40B0434F0061
:102BB000DE68BE4030439060506801268E40B043CE
:102BC0001E79C6F300168E40304350601E7906F021
:102BD0000306032E09D0D0684F000326BE40B04341
:102BE0004F009E68BE403043D0601E7906F0030659
:102BF000022E13D1CF0802F1200656F827004E0707
:102C0000F70E0F26BE40B0434F07FF0E1E69BE40B1
:102C10003043CF0802F1200646F8270010684F0025
:102C20000326BE40B0431E7906F003064F00BE40A7
:102C3000304310605E6806F44036002E76D000BF48
:102C4000002600963C4E366846F480463A4F3E6079
:102C50003E46366806F48046009600BF00BF374EF9
:102C60008F0856F827008E07370F0F26BE40B04357
:102C7000334EB24202D1002624E057E0314EB24238
:102C800001D101261EE0304EB24201D1022619E0E8
:102C90002E4EB24201D1032614E02D4EB24201D194
:102CA00004260FE02B4EB24201D105260AE02A4E3F
:102CB000B24201D1062605E0284EB24201D10726D4
:102CC00000E008268F073F0FBE4030431B4E8F08A1
:102CD00046F82700224E3068A0435E6806F480164E
:102CE00006B120431E4E3060361D3068A0435E683A
:102CF00006F4001606B12043194E361D3060184EFA
:102D0000361F3068A0435E6806F4003606B12043E3
:102D1000134E361F3060361F3068A0435E6806F4DD
:102D2000803606B120430E4E083E3060491C102903
:102D3000FFF426AFF8BD00004438024008380140D7
:102D4000000002400004024000080240000C024063
:102D5000001002400014024000180240001C024013
:102D6000083C0140024613690B400BB1012000E012
:102D7000002070470AB1816101E00B048361704754
:102D800001480068704700002000002003480068E8
:102D90000349097808440149086070472000002071
:102DA0002800002010B50D48006840F400700B4961
:102DB00008600846006840F48060086008460068C3
:102DC00040F480700860032000F0AAF8032000F0AF
:102DD00007F800F02BF8002010BD0000003C024076
:102DE00070B504460E4800784FF47A71B1FBF0F0EC
:102DF0000C490968B1FBF0F5284600F033FC08B136
:102E0000012070BD102C07D200222146501E00F078
:102E100049F80548046001E00120F2E70020F0E7EE
:102E2000280000202C0000202400002008B500BF4E
:102E3000002000901048006840F480400E4908606F
:102E40000846006800F48040009000BF00BF00BF4B
:102E500000200090081F006840F08050091F0860A3
:102E60000846006800F08050009000BF00BF0520B9
:102E700000F056F808BD00004438024001460846FC
:102E800000280DDB00BF00BF00F01F0301229A40A5
:102E900043099B0003F1E023C3F8002100BF00BFFA
:102EA00000BF70472DE9F05F80460D4616460027AB
:102EB00005F074FC074639462A46334601F0070000
:102EC000C0F1070ABAF1040F02D94FF0040A01E079
:102ED000C0F1070AD14600F1040ABAF1070F02D285
:102EE0004FF0000A01E0A0F1030AD4464FF0010AB6
:102EF0000AFA09FAAAF1010A0AEA020A0AFA0CFA1B
:102F00004FF0010B0BFA0CFBABF1010B0BEA030BBF
:102F10004AEA0B042146404605F048FCBDE8F09F14
:102F200000BF00F00702064B19684FF6FF03194077
:102F3000044B0B4343EA0221014B196000BF704769
:102F40000CED00E00000FA0570B504460D460CB922
:102F5000012070BD5848006800F00700A84209D25F
:102F600055490D700846006800F00700A84201D0DE
:102F70000120EEE7207800F0020002281DD1207821
:102F800000F00400042805D14C48006840F4E050EB
:102F90004A490860207800F00800082805D1474811
:102FA000006840F46040454908604448006820F0EB
:102FB000F000A168084341490860207800F0010052
:102FC000A8B36068012807D13C4808380068C0F3FE
:102FD0004040B8B90120BCE76068022802D06068B0
:102FE000032807D1354808380068C0F3406048B965
:102FF0000120AEE7314808380068C0F3400008B946
:103000000120A6E72D48006820F00300616808430E
:103010002A490860FFF7B4FE064609E0FFF7B0FE54
:10302000801B41F28831884202D9032091E707E0F2
:103030002248006800F00C006168B0EB810FEDD110
:103040001D48006800F00700A84209D91A490D7010
:103050000846006800F00700A84201D0012078E788
:10306000207800F00400042807D11448006820F4F8
:10307000E050E168084311490860207800F008003A
:10308000082808D10D48006820F46040216940EA12
:10309000C1000A49086000F03FF808490968C1F317
:1030A0000311074A515CC840064908600648006899
:1030B000FFF796FE00204CE7003C02400838024033
:1030C000CCC900082C000020240000200148006822
:1030D000704700002C00002000B5FFF7F7FF0449FF
:1030E0000968C1F38221034A515CC84000BD000059
:1030F00008380240DCC9000800B5FFF7E7FF0449C3
:103100000968C1F34231034A515CC84000BD000068
:1031100008380240DCC900082DE9F04700240025EA
:103120000026A1462548006800F00C0020B10428C4
:1031300005D008283AD105E0DFF8849039E0DFF8BF
:10314000849036E01D48001F006800F03F041B48D3
:10315000001F006800F4800078B11A481749091F61
:103160000968C1F38811A0FB0170014622460023C3
:103170003846FDF725F805460EE011480F49091FAE
:103180000968C1F38811A0FB0170014622460023A3
:103190003846FDF715F805460848001F0068C0F3DB
:1031A0000140401C4600B5FBF6F902E0DFF8109044
:1031B00000BF00BF4846BDE8F08700000838024065
:1031C0000024F40000127A00F8B504460CB901207E
:1031D000F8BD207800F00100002874D0F94800689C
:1031E00000F00C0004280DD0F648006800F00C0038
:1031F000082813D1F348001F006800F48000B0F5E0
:10320000800F0BD1EF4808380068C0F34040002819
:1032100059D06068002856D10120D9E700BF606806
:10322000B0F5803F08D1E7480838006840F48030A6
:10323000E449083908601EE06068B0F5A02F0DD1A0
:10324000E0480838006840F48020DE49083908600A
:103250000846006840F4803008600CE0D94808381F
:10326000006820F48030D7490839086008460068B3
:1032700020F48020086000BF606890B1FFF780FDF7
:10328000054606E0FFF77CFD401B642801D90320BA
:103290009EE7CC4808380068C0F340400028F1D0D1
:1032A00011E0FFF76DFD054606E0FFF769FD401BE5
:1032B000642801D903208BE7C24808380068C0F3AE
:1032C00040400028F1D1207800F0020002285FD1B0
:1032D000BC48006800F00C0058B1BA48006800F023
:1032E0000C0008281CD1B748001F006800F48000BB
:1032F000B0B9B44808380068C0F3400020B1E068B5
:10330000012801D0012063E7AE480838006820F0AA
:10331000F800216940EAC100AA490839086037E08D
:10332000E06800B30120A8490860FFF729FD0546C1
:1033300006E0FFF725FD401B022801D9032047E7DF
:10334000A04808380068C0F340000028F1D09D482C
:103350000838006820F0F800216940EAC100994966
:103360000839086014E0002097490860FFF708FD5D
:10337000054606E0FFF704FD401B022801D90320A3
:1033800026E7904808380068C0F340000028F1D1D3
:10339000207800F0080008282CD16069A8B101202D
:1033A0008A490860FFF7ECFC054606E0FFF7E8FCF9
:1033B000401B022801D903200AE782486C300068CC
:1033C000C0F340000028F1D014E000207F490860DD
:1033D000FFF7D6FC054606E0FFF7D2FC401B0228AB
:1033E00001D90320F4E677486C300068C0F3400050
:1033F0000028F1D1207800F00400042870D10027C3
:1034000070483830006800F0805090B900BF00204C
:1034100000906C483830006840F08050694938317D
:1034200008600846006800F08050009000BF00BFB0
:1034300001276748006800F48070B0B964480068EC
:1034400040F4807062490860FFF79AFC054606E088
:10345000FFF796FC401B022801D90320B8E65C4820
:10346000006800F480700028F2D000BFA068012836
:1034700008D154486830006840F001005149683173
:1034800008601DE0A06805280DD14E48683000682E
:1034900040F004004B49683108600846006840F07D
:1034A000010008600CE047486830006820F0010027
:1034B0004449683108600846006820F0040008604C
:1034C00000BFA068A8B1FFF75BFC054609E0FFF765
:1034D00057FC401B41F28831884202D9032077E62D
:1034E00026E0384868300068C0F340000028EED07D
:1034F00013E0FFF745FC054608E0FFF741FC401BE1
:1035000041F28831884201D9032061E62D486830B4
:103510000068C0F340000028EFD1012F07D12948EF
:103520003830006820F0805026493831086000BFEC
:10353000A069002845D02348006800F00C00082846
:103540005DD0A069022845D100201F490866FFF719
:1035500017FC054606E0FFF713FC401B022801D9C3
:10356000032035E6174808380068C0F3406000289B
:10357000F1D1D4E907010843616A40EA81110122CF
:10358000A06AC2EB500041EA00412C20005D41EAF4
:1035900000600C49091F086001200B490866FFF70D
:1035A000EFFB054606E0FFF7EBFB401B022801D9C5
:1035B00003200DE6034808380068C0F34060002887
:1035C000F1D049E00838024000004742800E4742EF
:1035D00000700040002021490866FFF7D1FB054636
:1035E00006E0FFF7CDFB401B022801D90320EFE5E1
:1035F0001B480068C0F340600028F2D12CE0A069AD
:10360000012800D1E4E51648001D0668A0690128DC
:1036100020D006F48001E06981421BD106F03F0111
:10362000206A814216D147F6C0703040616AB0EB23
:10363000811F0FD106F440310122A06AC2EB500075
:10364000B1EB004F06D106F070612C20005DB1EBAC
:10365000006F01D00120BBE50020B9E50000474222
:103660000038024070B504462546681EB0F1807FE0
:1036700001D301200FE0681E4FF0E02148610F21C7
:103680004FF0FF3005F092F800204FF0E021886104
:1036900007200861002070BD7047704730B50246B2
:1036A0000B4600BF92F83C00012801D1022030BD3A
:1036B000012082F83C0000BF022082F83D00106823
:1036C00044681068816824F0700418680443106826
:1036D0004460184D1068A8421BD01068B0F1804FAC
:1036E00017D0154D1068A84213D0144D1068A84289
:1036F0000FD0134D1068A8420BD0124D1068A8428D
:1037000007D0114D1068A84203D0104D1068A84290
:1037100005D121F0800158680143106881600120C3
:1037200082F83D0000BF002082F83C0000BF00BFCF
:10373000BDE7000000000140000400400008004018
:10374000000C00400004014000400140001800400F
:1037500010B504460CB9012010BD94F83D0028B9FD
:10376000002084F83C00204600F026F8022084F86F
:103770003D00211D206804F069FB012084F846000B
:1037800000BF84F83E0001213F2001554020015533
:103790004120015500BF00BF012084F842004320B2
:1037A0000155442001554520015500BF012084F8F2
:1037B0003D000020D0E7000038B504465549206898
:1037C00088420FD100BF002000905348006840F0AD
:1037D0000400514908600846006800F004000090A9
:1037E00000BF96E04D49206888420FD100BF0020FD
:1037F00000904948006840F00800474908600846C2
:10380000006800F00800009000BF82E04449206892
:10381000884218D100BF002000903F48006840F067
:1038200010003D4908600846006800F01000009054
:1038300000BF00BF012200213620FFF733FB3620F6
:10384000FFF71CFB65E037492068884218D100BFAC
:10385000002000903048006840F020002E490860A9
:103860000846006800F02000009000BF00BF022260
:1038700000213720FFF716FB3720FFF7FFFA48E05B
:1038800029492068884211D100BF002000902248B9
:10389000001D006840F480301F49091D086008467B
:1038A000006800F48030009000BF32E01F492068BB
:1038B00088421AD100BF002000901748001D006800
:1038C00040F400301449091D08600846006800F4FF
:1038D0000030009000BF00BF002202211920FFF736
:1038E000E1FA1920FFF7CAFA13E01149206888426B
:1038F0000FD100BF002000900748006840F0400052
:10390000054908600846006800F04000009000BFCC
:1039100000BF38BD0008004040380240000C0040A5
:1039200000100040001400400040014000440140ED
:1039300000180040014691F83D00012801D0012007
:103940007047022081F83D000868C06840F001001F
:103950000B68D8601A4B086898421BD00868B0F111
:10396000804F17D0174B0868984213D0164B086841
:1039700098420FD0154B086898420BD0144B08683A
:10398000984207D0134B0868984203D0124B08683E
:1039900098420CD10868806800F00702062A0CD013
:1039A0000868006840F001000B68186005E00868CE
:1039B000006840F001000B6818600020C0E70000BC
:1039C000000001400004004000080040000C0040DE
:1039D0000004014000400140001800400146086812
:1039E000C06820F001000A68D06000BF0868006A63
:1039F00041F21112104050B90868006A921010404C
:103A000028B90868006820F001000A68106000BF4B
:103A1000012081F83D00002070472DE9F041044667
:103A20000D46002700BF94F83C00012802D1022077
:103A3000BDE8F081012084F83C0000BF022084F83A
:103A40003D002068866826F0770626F47F462068C9
:103A500086602868502833D00CDC202850D004DC45
:103A600000284BD0102851D149E0302849D04028B7
:103A70004CD139E060282DD0702807D0B0F5805F98
:103A800003D0B0F5005F41D10DE041E0D5E902136C
:103A90006A68206804F05FFA2068866846F0770656
:103AA0002068866034E0D5E902136A68206804F073
:103AB00052FA2068806840F480402168886027E0DE
:103AC000EA686968206804F037FB5021206804F038
:103AD0004DFA1DE0EA686968206804F040FB602147
:103AE000206804F043FA13E0EA686968206804F08B
:103AF00023FB4021206804F039FA09E000BF00BF31
:103B000000BF2968206804F031FA01E0012700BFF6
:103B100000BF012084F83D0000BF002084F83C0075
:103B200000BF384684E72DE9F04104460D4614B93C
:103B30000120BDE8F08194F83D0028B9002084F808
:103B40003C00204600F054F8022084F83D00206834
:103B5000806844F20701884321688860211D20683D
:103B600004F074F92068D0F808802068866920681D
:103B7000076A286840EA080840F203308643A969CA
:103B8000A86840EA0120064340F60C4086434FF205
:103B9000F0008643E969E86840EA012006432869A5
:103BA0000001296A40EA0130064327F0220727F086
:103BB00088076969686840EA011007432068C0F80F
:103BC00008802068866120680762012084F846002A
:103BD00084F83E0001213F200155012084F8420075
:103BE00043200155012084F83D000020A1E700009A
:103BF00010B586B00446142101A8FCF72BFB8049C0
:103C00002068884239D100BF002000907D480068BC
:103C100040F001007B4908600846006800F00100A0
:103C2000009000BF00BF00BF00200090754814380E
:103C3000006840F0100073491439086008460068B5
:103C400000F01000009000BF00BF4FF42060019012
:103C50000220029001200390002004900120059092
:103C600001A96948FEF784FF002202211920FFF70D
:103C700019F91920FFF702F9BFE02068B0F1804F71
:103C800050D100BF002000905E48001F006840F047
:103C900001005C49091F08600846006800F0010047
:103CA000009000BF00BF00BF0020009055481438AE
:103CB000006840F001005349143908600846006864
:103CC00000F00100009000BF00BF00BF0020009086
:103CD0000846006840F0020008600846006800F0EE
:103CE0000200009000BF00BF4FF40040019002208E
:103CF000029001200390002004900120059001A96A
:103D00004248FEF735FF0820019002200290012072
:103D10000390002004900120059001A93C48FEF783
:103D200027FF6AE03B492068884232D100BF00206B
:103D300000903448001F006840F002003149091F1C
:103D400008600846006800F00200009000BF00BF55
:103D500000BF002000902B481438006840F002009B
:103D60002849143908600846006800F002000090F5
:103D700000BF00BF3020019002200290012003907C
:103D8000002004900220059001A92148FEF7F0FED2
:103D900033E02149206888422FD100BF00200090E5
:103DA0001848006840F0020016490860084600689C
:103DB00000F00200009000BF00BF00BF0020009094
:103DC00010481438006840F004000E4914390860A7
:103DD0000846006800F00400009000BF00BFC0204B
:103DE0000190022002900120039000200490032003
:103DF000059001A90948FEF7BBFE06B010BD000002
:103E0000000001404438024000100240000002401F
:103E10000004024000040040000401400008024089
:103E20002DE9F04304460D4694F83E603F20075DBF
:103E300094F84280432010F804906DB9012E02D10D
:103E4000B8F1010F02D00120BDE8F083022084F810
:103E50003E0084F8420025E0042D0CD1012F02D150
:103E6000B9F1010F01D00120EEE702213F200155F9
:103E70004320015516E0012E07D1012F05D1B8F1DD
:103E8000010F02D1B9F1010F01D00120DCE70220BE
:103E900084F83E0002213F200155022084F84200B0
:103EA0004320015515B1042D0CD105E0012200215C
:103EB000206804F03FF810E001220421206804F09B
:103EC00039F80AE001220021206804F033F80122C9
:103ED0000421206804F02EF800BF00BF20680068AD
:103EE00040F00100216808600020ADE7704770B520
:103EF00004462068C5682068066906F002000228AA
:103F000019D105F00200022815D1401F216808616F
:103F1000012020772068806900F0030018B1204656
:103F2000FFF7E4FF05E0204600F03AF9204600F0F4
:103F3000EEF90020207706F00400042819D105F0DE
:103F40000400042815D1C0432168086102202077AD
:103F50002068806900F4407018B12046FFF7C6FF62
:103F600005E0204600F01CF9204600F0D0F90020C2
:103F7000207706F00800082819D105F00800082865
:103F800015D1C04321680861042020772068C069EA
:103F900000F0030018B12046FFF7A8FF05E0204617
:103FA00000F0FEF8204600F0B2F90020207706F07D
:103FB0001000102819D105F01000102815D1C043A9
:103FC00021680861082020772068C06900F44070EB
:103FD00018B12046FFF78AFF05E0204600F0E0F820
:103FE000204600F094F90020207706F0010048B147
:103FF00005F0010030B16FF0010021680861204632
:1040000000F00CFA06F08000802809D105F080004D
:10401000802805D1C043216808612046FFF73CFB9A
:1040200006F04000402809D105F04000402805D1A5
:10403000C04321680861204600F0C2FF06F020005E
:10404000202809D105F02000202805D1C04321688F
:1040500008612046FFF721FB70BD000010B586B057
:104060000446142101A8FCF7F5F845492068884268
:104070001ED100BF002000904248006840F00200BE
:10408000404908600846006800F00200009000BF48
:1040900000BF4FF470700190022002900020039046
:1040A00004900220059001A93748FEF761FD65E004
:1040B0003649206888421DD100BF00200090314859
:1040C000006840F001002F4908600846006800F0D1
:1040D0000100009000BF00BF0F200190022002905D
:1040E0000020039004900220059001A92848FEF7C3
:1040F0003FFD43E02749206888421DD100BF0020D2
:1041000000902048006840F010001E4908600846F2
:10411000006800F01000009000BF00BF6020019018
:10412000022002900020039004900320059001A932
:104130001948FEF71DFD21E01849206888421DD16D
:1041400000BF002000900F48006840F002000D49B9
:1041500008600846006800F00200009000BF00BF41
:104160004FF4404001900220029000200390049000
:104170000920059001A90448FEF7FAFC06B010BD1D
:10418000000800403038024000040240000C0040AB
:1041900000000240004001400010024000180040B2
:1041A00070472DE9F04104460D461646002700BF32
:1041B00094F83C00012802D10220BDE8F0810120E2
:1041C00084F83C0000BF36B1042E1BD0082E31D03D
:1041D0000C2E5ED145E02946206803F0D1FE206810
:1041E000806940F00800216888612068806920F0BB
:1041F0000400216888612068806929690843216872
:10420000886148E02946206803F0F2FE2068806952
:1042100040F40060216888612068806920F4806033
:104220002168886120688069296940EA0120216845
:10423000886130E02946206803F018FF2068C069D3
:1042400040F008002168C8612068C06920F00400BF
:104250002168C8612068C069296908432168C8616C
:1042600019E02946206803F03DFF2068C06940F44A
:1042700000602168C8612068C06920F480602168FE
:10428000C8612068C069296940EA01202168C861C5
:1042900001E0012700BF00BF00BF002084F83C0000
:1042A00000BF384689E710B504460CB9012010BD9F
:1042B00094F83D0028B9002084F83C00204600F026
:1042C00025F8022084F83D00211D206803F0BEFD82
:1042D000012084F8460000BF84F83E0001213F2001
:1042E0000155402001554120015500BF00BF01206C
:1042F00084F84200432001554420015545200155D2
:1043000000BF012084F83D000020D0E770477047CF
:1043100070B504460D4615B994F83E000BE0042D27
:1043200002D13F20005D06E0082D02D14020005D53
:1043300001E04120005D012801D0012070BD1DB9C0
:10434000022084F83E000EE0042D03D102213F201C
:10435000015508E0082D03D102214020015502E05B
:1043600002214120015501222946206803F0E2FD87
:1043700023492068884203D022492068884201D11D
:10438000012000E0002028B12068406C40F400408B
:10439000216848641A49206888421BD02068B0F11F
:1043A000804F17D018492068884213D017492068D9
:1043B00088420FD01649206888420BD011492068E6
:1043C000884207D013492068884203D012492068E8
:1043D00088420CD12068806800F00706062E0CD0B9
:1043E0002068006840F001002168086005E020684E
:1043F000006840F001002168086000209EE700008E
:10440000000001400004014000040040000800409A
:10441000000C0040004001400018004030B52DED78
:10442000068B85B00446FC4884427DD1FB4890F859
:104430008101002879D0F948D0F89C0140B1F749B2
:10444000D1F89C01804718B10020F44981F881011E
:10445000F24890F88101012818D1002013E0EF49BB
:10446000896801228240114061B1ED4931F8101094
:10447000EC4A52F82020914204DD0021E74A82F8FC
:10448000811102E0401C0B28E9DD00BFE34890F8F1
:104490008101022815D1E14890F8E00088B103F0CD
:1044A00069F90020DD4981F8E000084690ED341AF2
:1044B000F0EE410A90ED361AB0EE410ADA4802F009
:1044C0007BFFD64890F8810103287CD1D34890F82F
:1044D000E000002878D003F04DF90020CF4981F8A2
:1044E000E000084690ED341AF0EE410A90ED361ADD
:1044F000B0EE410ACD4802F05FFFC84890ED360AA1
:10450000D0ED340A30EE600A10EE101A0846FCF7BF
:1045100003F841EC180BC64890ED070A10EE101A8C
:104520000846FBF7F9FF01E046E273E141EC190BA5
:10453000BE4890ED070A10EE101A0846FBF7ECFF94
:1045400041EC1A0B8DED028B8DED009B53EC1A2B79
:10455000B8A004F0FDF8B54890ED070AAF48D0EDDB
:104560001D0A20EE200AB14880ED070A90ED070AE7
:10457000DFEDB30AB4EEE00AF1EE10FA02D89FEDD7
:10458000B00A0FE0A94890ED070ADFEDAE0AB4EEDD
:10459000E00AF1EE10FA02DB9FEDAA0A02E0A3485E
:1045A00090ED070AA14880ED070A90ED070AB5EEE5
:1045B000C00AF1EE10FA0FDD90ED070ADFEDA20A56
:1045C000B4EEE00A01E03BE01BE0F1EE10FA03D2AA
:1045D0009FED9D0A80ED070A944890ED070AB5EE1D
:1045E000C00AF1EE10FA0CD290ED070ADFED970A3F
:1045F000B4EEE00AF1EE10FA03DD9FED940A80EDCF
:10460000070A864890ED360AD0ED340A30EE600A8B
:10461000F0EE000AB4EEE00AF1EE10FA10D290EDDE
:10462000360AD0ED340A30EE600AF8EE000AB4EE35
:10463000E00AF1EE10FA03DD0020784981F88101EB
:10464000764890F8810105280AD17448006F7349B3
:10465000C96E401A012803DC0020704981F88101ED
:104660006E4890F8810106280BD16C48D0F8900173
:10467000002806DC7648FFF7B1F90020674981F889
:104680008101664890F88101072809D16349D1F872
:104690009401FDF7F9FB18B90020604981F8810108
:1046A0005E4890F8810109286DD15C4890F8E000DF
:1046B000E8B303F05FF80020584981F8E00065484E
:1046C000006848B96348001F006828B9084690EDA3
:1046D000360A80ED360A19E05E48001F006848B9C6
:1046E0004E4890ED360AF6EE000A30EE600A80ED94
:1046F000360A0BE05748006840B9484890ED360A42
:10470000F6EE000A30EE200A80ED360A434890EDBE
:10471000360AD0ED370AB1EE0C1A70EEC10AB4EECB
:10472000E00AF1EE10FA08D890ED370A00E02AE02E
:10473000F1EE0C0A30EE600A17E0384890ED360AC8
:10474000D0ED370AB1EE0C1A70EE810AB4EEE00A31
:10475000F1EE10FA06DB90ED370AF1EE0C0A30EEBE
:10476000200A02E02D4890ED360A2C4880ED360AEA
:1047700090ED341AF0EE410A90ED361AB0EE410A8F
:10478000294802F019FE254890F881010A2841D1F4
:10479000224890F8E000E8B302F0ECFF00201F4947
:1047A00081F8E0002B48006848B92A48001F0068DB
:1047B00028B9084690ED360A80ED360A19E02548FA
:1047C000001F006848B9154890ED360ADFED220A4F
:1047D00030EE200A80ED360A0BE01E48006840B932
:1047E0000E4890ED360ADFED1C0A30EE600A80EDCF
:1047F000360A0A4890ED360AD0ED370AB2EE041AAE
:1048000070EEC10AB4EEE00AF1EE10FA2BD890ED8A
:10481000370A23E04DE00000700600201C01002054
:10482000000400203000002080030020A0030020AE
:10483000E002002025662C25662C25660A00000073
:104840000000C8C20000C84200004842000048C240
:1048500090070020140241429A99993FF2EE040A0F
:1048600030EE600A17E0FE4890ED360AD0ED370AC8
:10487000B2EE041A70EE810AB4EEE00AF1EE10FA1C
:1048800006DB90ED370AF2EE040A30EE200A02E071
:10489000F34890ED360AF24880ED360A90ED341A6E
:1048A000F0EE410A90ED361AB0EE410AED4802F002
:1048B00083FDEB4890F8810100287CD0E84890F80F
:1048C0009801012878D10020E54981F8980108462F
:1048D00090F8860140B3084690F8800190B9E2480C
:1048E0000068042808DB0020DF49086006F0C2F8F1
:1048F0000020DB4981F88301DB480068401CDA496D
:10490000086028E0D648D0F87C0107280DDB00209D
:10491000D6490860D24890F8830128B106F0AAF879
:104920000020CF4981F8830115E0D04800680728AE
:104930000CDB0020CD490860C94890F8830128B1FC
:1049400006F098F80020C64981F88301C74800683E
:10495000401CC6490860C24890F8810103287CD0F9
:10496000BF4890F8860118B1BD4890ED630A01E098
:104970009FEDBF0AB0EE408AB94890ED1D1AB948C4
:10498000D0ED071A31EE611ABA48D0ED071A31EEB0
:10499000611AB948D0ED071A31EE211AF7EE001A64
:1049A00071EEC81A21EE211AB0EE410AB3484068F0
:1049B00001EE100A01E0E7E0ECE0B8EEC11AF0EE1B
:1049C000410AAF4802F068FDA54890ED1D1AA548C0
:1049D000D0ED071A31EE211AA648D0ED071A31EEB4
:1049E000211AA548D0ED071A31EE211AF7EE001A68
:1049F00078EE211A21EE211AB0EE410A9F48806814
:104A000001EE100AB8EEC11AF0EE410A9D4802F01C
:104A100043FD934890ED1D1A9248D0ED071A31EEF0
:104A2000611A9448D0ED071A31EE611A9248D0ED20
:104A3000071A31EE211AF7EE001A71EEC81A21EEAC
:104A4000211AB0EE410A8D48C06801EE100AB8EE96
:104A5000C11AF0EE410A8C4800E027E002F01CFD8C
:104A60007F4890ED1D1A7F48D0ED071A31EE211ACC
:104A70008048D0ED071A31EE211A7F48D0ED071A91
:104A800031EE211AF7EE001A78EE211A21EE211AE2
:104A9000B0EE410A7948006901EE100AB8EEC11A79
:104AA000F0EE410A794802F0F7FC43E073484068B1
:104AB00001EE100AB8EEC11AF0EE410A6D4890ED11
:104AC000071AB1EE411AB0EE410A6D4802F0E4FC5B
:104AD0006A48806801EE100AB8EEC11AF0EE410A89
:104AE000644890ED071AB0EE410A664802F0D4FC23
:104AF0006248C06801EE100AB8EEC11AF0EE410A31
:104B00005C4890ED071AB1EE411AB0EE410A5E48DA
:104B100002F0C2FC5948006901EE100AB8EEC11A51
:104B2000F0EE410A534890ED071AB0EE410A57489B
:104B300002F0B2FC5148006900905048C368826896
:104B400041685348056853A0A847504D95ED070AA2
:104B5000BDEEC00A10EE103A4B4D95ED070ABDEEC2
:104B6000C00A10EE102A474D95ED070ABDEEC00AA7
:104B700010EE101A424D95ED070ABDEEC00A10EE78
:104B8000100A06F0B5F905E000231A461946184642
:104B900006F0AEF94248844260D142480068401CA9
:104BA0004049086040480068401C3F4908603F4851
:104BB0000068401C3D4908603A48006802284EDB06
:104BC0002748D0F8C8002649C1F8CC000846D0F8DC
:104BD000C400C1F8C8000846D0F8C000C1F8C4003D
:104BE0000846D0F8BC00C1F8C0000846D0F8B800AC
:104BF000C1F8BC000846D0F8B400C1F8B8000846B7
:104C0000D0F8B000C1F8B4000846D0F8AC00C1F844
:104C1000B0000846D0F8A800C1F8AC000846D0F8AB
:104C2000A400C1F8A8000846D0F8A000C1F8A4006C
:104C30000846D0F89C00C1F8A0000846D0F89800BB
:104C4000C1F89C000846D0F89400C1F898000846C6
:104C5000D0F89000C1F89400084629E082E144E0D1
:104C60001C01002080030020C4000020C800002098
:104C700000000000A003002060030020C00300200B
:104C8000E002002000030020200300204003002059
:104C90001001002025642C25642C25642C2564003B
:104CA000B8060020B8000020BC000020C000002092
:104CB000D0F88C00C1F890000846D0F88800C1F800
:104CC0008C000846D0F88400C1F888000846D0F867
:104CD0008000C1F8840002F04DFDAF48806FAE49FE
:104CE000C1F880000020AD490860AB4890F8800111
:104CF000E8BB0020A84981F88401A948006802287F
:104D00003FDB0020A6490860FBF7DAFDA5490880D3
:104D10000120FBF7D5FDA34948800220FBF7D0FD19
:104D2000A04988800320FBF7CBFD9E49C880042062
:104D3000FBF7C6FD9B4908810520FBF7C1FD99499A
:104D400048810620FBF7BCFD964988810720FBF7C8
:104D5000B7FD9449C8810820FBF7B2FD914908824C
:104D60000920FBF7ADFD8F4948820A2000E00EE0E4
:104D7000FBF7A6FD8B4988820B20FBF7A1FD894933
:104D8000C88287480068401C8549086091E08248D5
:104D900090F88001012846D17F48D0F87C018249F3
:104DA0000968884239DC7C4890F9840102280EDCCD
:104DB000052002F01DFD0020774981F88301084697
:104DC00090F88401401C40B281F884011AE005206B
:104DD00002F00EFD04217548FDF790F81F22002116
:104DE0007248FBF795FE6C4890F982311922202118
:104DF0006E48FBF779FF684880ED620A012066493A
:104E000081F8830104F094F969480078401C40B2AD
:104E10006749087000206449086063480068401CC6
:104E20006149086045E05C48D0F87C015E4909684A
:104E3000884239DC584890F9840102280EDC0420AD
:104E400002F0D6FC0020544981F88301084690F80E
:104E50008401401C40B281F884011AE0042002F071
:104E6000C7FC04215148FDF749F81F2200214F4893
:104E7000FBF74EFE484890F98231192220214B4819
:104E8000FBF732FF444880ED620A0120424981F875
:104E9000830104F04DF946480078401C40B2444973
:104EA00008700020404908603F480068401C3E49A7
:104EB000086040480068142854DB00203D49086021
:104EC000354890F86800E8B306F096F8324890F854
:104ED000800180B938494968374A92681144364A96
:104EE000D2681144344A12698818C11700EB9171D5
:104EF0008910294AD166284890F88001012810D1EC
:104F00002D4949682C4A9268891A2B4AD268891A15
:104F1000294A12698818C11700EB917189101E4A3D
:104F2000D1661D4890F98001401C58B92249496852
:104F30004942214A9268891A1F4AD268891A1E4A30
:104F4000126900E006E0881AC11700EB9171891020
:104F5000114AD16606F0CEF801200F4981F8E00031
:104F600081F898011548844212D10B48D0F890017D
:104F7000401E0949C1F890010846D0F89001002868
:104F800006DC0E48FEF72AFD0020034981F8810166
:104F900005B0BDEC068B30BD1C010020B800002020
:104FA000CC00002000040020C00000205809002090
:104FB00014000020BC000020D40300209007002033
:104FC0007047704710B5044600BF00BF21680C3120
:104FD00051E8001F21F4907021680C3141E8000273
:104FE000002AF3D100BF00BF00BF2168143151E88F
:104FF000001F21F001002168143141E80002002A5D
:10500000F3D100BF206B01280ED100BF00BF216883
:105010000C3151E8001F21F0100021680C3141E8EB
:105020000002002AF3D100BF2068406900F0400070
:10503000402820D100BF00BF2168143151E8001F73
:1050400021F040002168143141E80002002AF3D128
:1050500000BFE06B78B10020E16B0865E06BFDF705
:1050600025FB40B1E06BFDF78BFB202803D110201E
:105070006064032010BD0020E085202084F84200F9
:105080000020206300BFF5E7704700002DE9F84FCE
:105090000446206805682068C668206847694FF0A4
:1050A0000009CA4605F00F09B9F1000F0AD105F051
:1050B000200038B106F0200020B1204603F0B3F8FC
:1050C000BDE8F88FB9F1000F7CD007F0010018B9E6
:1050D00006F49070002875D005F0010030B106F498
:1050E000807018B1606C40F00100606405F004004D
:1050F00030B107F0010018B1606C40F0020060644C
:1051000005F0020030B107F0010018B1606C40F00A
:105110000400606405F0080048B106F0200010B9F2
:1051200007F0010018B1606C40F008006064606C2A
:10513000002846D005F0200028B106F0200010B16C
:10514000204603F070F820684069C0F3801A606C54
:1051500000F0080010B9BAF1000F2DD0204603F07E
:105160001CF82068406900F04000402820D100BFB2
:1051700000BF2168143151E8001F21F04000216870
:10518000143141E80002002AF3D100BFE06B50B1B6
:105190007748E16B0865E06BFDF7DEFA88B1E06BFC
:1051A000016D88470DE02046FFF76EFF09E009E03A
:1051B0002046FFF769FF04E02046FFF765FF002067
:1051C00060647DE7206B012878D105F0100000288D
:1051D00074D006F010000028FAD000BF0020009024
:1051E00020680068009020684068009000BF00BF01
:1051F0002068406900F04000402860D1E06B006802
:1052000040681FFA80F8B8F1000F56D0A08D4045D5
:1052100053DDA4F82E80E06BC069B0F5807F43D0E9
:1052200000BF00BF21680C3151E8001F21F48070DD
:1052300021680C3141E80002002AF3D100BF00BF11
:1052400000BF2168143151E8001F21F001002168DE
:10525000143141E80002002AF3D100BF00BF00BFB3
:105260002168143151E8001F21F0400021681431F9
:1052700041E80002002AF3D100BF202084F8420058
:105280000020206300BF00BF21680C3151E8001FDF
:1052900021F0100021680C3141E80002002AF3D10E
:1052A00000BFE06BFDF702FA02206063A08DE28D83
:1052B000801A81B22046FFF784FE01E742E0A08D0C
:1052C000E18D401A1FFA80F8E08DD0B3B8F1000FDD
:1052D00037D000BF00BF21680C3151E8001F21F416
:1052E000907021680C3141E80002002AF3D100BF20
:1052F00000BF00BF2168143151E8001F21F00100F8
:105300002168143141E80002002AF3D100BF2020B7
:1053100084F842000020206300BF00BF21680C31E8
:1053200051E8001F21F0100021680C3141E8000213
:10533000002AF3D100BF0220606341462046FFF7F8
:1053400040FEBDE605F0800030B106F0800018B1E7
:10535000204603F01DF9B3E605F0400030B106F039
:10536000400018B1204602F04EFFA9E600BFA7E6B4
:105370008781000810B504460CB9012010BDA06952
:1053800000B100E000BF94F8410028B9002084F883
:105390004000204600F02AF8242084F841002068CC
:1053A000C06820F400502168C860204602F0BAFFAF
:1053B0002068006920F490402168086120684069F5
:1053C00020F02A00216848612068C06840F400503D
:1053D0002168C86000206064202084F8410084F8BF
:1053E00042000020606300BFC8E7000010B586B02F
:1053F0000446142101A8FAF72DFF65492068884268
:1054000031D100BF002000906248006840F01000D9
:10541000604908600846006800F01000009000BF76
:1054200000BF00BF002000905A481438006840F0C8
:1054300001005849143908600846006800F001006E
:10544000009000BF00BF4FF4C060019002200290A6
:1054500000200390032004900720059001A94E48E6
:10546000FDF786FB92E04D492068884257D100BF86
:10547000002000904748001F006840F40030454974
:10548000091F08600846006800F40030009000BF63
:1054900000BF00BF002000903E481438006840F074
:1054A00008003C49143908600846006800F008000C
:1054B000009000BF00BF60200190022002900020F9
:1054C0000390032004900720059001A93448FDF7BC
:1054D0004FFB3448344908604FF0006048600021B9
:1054E00031488160C1604FF48061016100214161F8
:1054F0008161C16101624162FDF766FA08B1FCF7A2
:1055000067FC00BF2848E063846300BF00221146A7
:105510002620FDF7C7FC2620FDF7B0FC36E0234926
:105520002068884232D100BF002000901948001F37
:10553000006840F480201749091F08600846006889
:1055400000F48020009000BF00BF00BF002000904A
:1055500010481438006840F002000E491439086001
:105560000846006800F00200009000BF00BF4FF442
:1055700040600190022002900020039003200490DC
:105580000720059001A90A48FDF7F2FA06B010BD00
:105590000010014044380240000002400044004036
:1055A000000C024088600240F808002000480040DB
:1055B0000004024070B504460D46164694F84200B9
:1055C00020280BD105B10EB9012070BD0020206349
:1055D00032462946204602F0BBFFF6E70220F4E7F8
:1055E00010B50446194884422ED11948007858B3A2
:1055F00018480078AA2817D116488078BB2813D1FC
:10560000144840783038144908700846007800285B
:105610000ADD08460078062806DA01200F490870DE
:1056200000200B49087010BD0A48407809490870ED
:105630000846807848700122891C0448FFF7BAFFA9
:1056400010B100200249087000BFECE76808002094
:10565000E7000020E4000020E9000020E80000202E
:105660002DE9F84F04460E46174699464FF0000ABA
:1056700094F84100202850D106B117B90120BDE8A7
:10568000F88F00206064212084F84100FDF778FB4A
:105690008246A784E784A068B0F5805F04D12069C2
:1056A00010B90025B04602E035464FF000081EE074
:1056B0005346002280212046CDF8009002F098FF4A
:1056C00020B1202084F841000320D8E745B9B8F87C
:1056D0000000C0F308002168486008F1020803E0F8
:1056E0002878216848606D1CE08C401EE084E08CC6
:1056F0000028DDD15346002240212046CDF80090FD
:1057000002F076FF20B1202084F841000320B6E7A4
:10571000202084F841000020B1E70220AFE7704765
:1057200070B5002500240FE00B4800F017F80A4878
:105730000078322804DD084800785A2800DA6D1C09
:105740000120FCF739F9641C142CEDDB032D01DB7F
:10575000012070BD0020FCE70800002010B50446C1
:1057600000F02EFD9E2000F01BFDD12000F018FD62
:1057700000F042FD00F0B4FC00F022FD9F2000F09C
:105780000FFD012000F0D6FC2070012000F0D2FCBB
:105790006070002000F0CEFCA07000F02DFD10BD68
:1057A0001EB50D48D0F894000B49D1F890100A4A64
:1057B000D2F88C20084CCDE900210290D4F8883032
:1057C000D4F88420D4F88010A06F05F05BFB21464C
:1057D000C1F8D4001EBD00001C0100202DE9F041DD
:1057E0002DED028BB0EE408A04460F4690461D46D2
:1057F0000020494981F886019FED480A28EE000AF9
:10580000DFED470A80EE201ABDEEC10A10EE100A45
:1058100006B20846B0F8D40030444FF4B47110FB1F
:1058200001F000EE100AB8EEC00ADFED3E0A80EE8D
:10583000201A394880ED361A90ED360A80ED370A85
:105840000020354981F88201092081F8810100EEAC
:10585000104AB8EEC00A084680ED1D0AC0F89C51F7
:105860009FED310A314880ED070A9FED2F0A30483D
:1058700080ED070A2F48FEF75DF820E0264890EDFE
:105880001D0ABDEEC00A10EE101A2BA002F060FF38
:105890002D4841682DA002F05BFF2B4881682FA0A6
:1058A00002F056FF2848C16830A002F051FF264898
:1058B000016932A002F04CFF3220FCF78AF816484A
:1058C00090F881010028D9D11A480068006900F0D9
:1058D000010020B16FF00100164909680861154800
:1058E000FEF77CF800231A461946184605F000FB1F
:1058F00000200949C86681F868009FED0B0A084638
:1059000080ED1D0A0020214948608860C860086158
:10591000BDEC028BBDE8F0811C01002000000047B7
:1059200000003443000080470000000060030020B6
:10593000A0030020700600204C302E76616C3D25BF
:1059400064FFFFFF00000000C00300205453312E0D
:1059500076616C3D2564FFFFFF0000005453322E3A
:1059600076616C3D2564FFFFFF0000005453332E29
:1059700076616C3D2564FFFFFF0000005453342E18
:1059800076616C3D2564FFFFFF000000D40300201A
:10599000F0B52DED0C8B89B0B0EE408A04460D4673
:1059A0009FED5E0A28EE000ADFED5D0A80EE201A08
:1059B000BDEEC10A10EE100A06B25A48B0F8D40083
:1059C00030444FF4B47110FB01F000EE100AB8EE51
:1059D000C00ADFED550A80EE201A524880ED361AD3
:1059E000FF20504981F88001002081F882010220C7
:1059F00081F8810100EE104AB8EEC00A084680ED39
:105A00001D0A002081F886010846C0F89C519FEDD0
:105A1000470A474880ED070A9FED440A454880ED54
:105A2000070A4548FDF786FF4AE03E4890ED360AF2
:105A3000D0ED340A30EE600A10EE101A0846FAF77C
:105A40006BFD41EC190B3D4890ED070A10EE101A62
:105A50000846FAF761FD41EC1A0B394890ED070A48
:105A600010EE101A0846FAF757FD41EC1B0B2D48B3
:105A700090ED340A10EE101A0846FAF74DFD41EC8D
:105A80001C0B2848D0ED340AB0EE600A2D4800F017
:105A9000C5FD10EE107A3846FAF73EFD41EC1D0BBD
:105AA0002948406808908DED069B8DED04AB8DED87
:105AB00002BB8DED00CB53EC1D2B24A002F048FE61
:105AC000184890F881010028AFD11B480068006990
:105AD00000F0010020B16FF001001749096808616A
